{
  "contractName": "HipraTokenFactory",
  "abi": [
    {
      "inputs": [],
      "stateMutability": "nonpayable",
      "type": "constructor"
    },
    {
      "anonymous": false,
      "inputs": [
        {
          "indexed": true,
          "internalType": "address",
          "name": "from",
          "type": "address"
        },
        {
          "indexed": true,
          "internalType": "address",
          "name": "to",
          "type": "address"
        },
        {
          "indexed": true,
          "internalType": "uint256",
          "name": "tokenId",
          "type": "uint256"
        }
      ],
      "name": "Transfer",
      "type": "event"
    },
    {
      "inputs": [
        {
          "internalType": "address",
          "name": "_address",
          "type": "address"
        }
      ],
      "name": "addAdmin",
      "outputs": [],
      "stateMutability": "nonpayable",
      "type": "function"
    },
    {
      "inputs": [
        {
          "internalType": "address",
          "name": "_address",
          "type": "address"
        }
      ],
      "name": "removeAdmin",
      "outputs": [],
      "stateMutability": "nonpayable",
      "type": "function"
    },
    {
      "inputs": [
        {
          "internalType": "address",
          "name": "_address",
          "type": "address"
        }
      ],
      "name": "addController",
      "outputs": [],
      "stateMutability": "nonpayable",
      "type": "function"
    },
    {
      "inputs": [
        {
          "internalType": "address",
          "name": "_address",
          "type": "address"
        }
      ],
      "name": "addResearcher",
      "outputs": [],
      "stateMutability": "nonpayable",
      "type": "function"
    },
    {
      "inputs": [
        {
          "internalType": "address",
          "name": "_id",
          "type": "address"
        }
      ],
      "name": "setSample",
      "outputs": [],
      "stateMutability": "nonpayable",
      "type": "function"
    },
    {
      "inputs": [
        {
          "internalType": "address",
          "name": "_id",
          "type": "address"
        },
        {
          "internalType": "bool",
          "name": "_is_valid",
          "type": "bool"
        },
        {
          "internalType": "string",
          "name": "_description",
          "type": "string"
        },
        {
          "internalType": "uint256",
          "name": "_temperature",
          "type": "uint256"
        },
        {
          "internalType": "uint256",
          "name": "_humidity",
          "type": "uint256"
        },
        {
          "internalType": "uint256",
          "name": "_brightness",
          "type": "uint256"
        }
      ],
      "name": "setControlCheck",
      "outputs": [],
      "stateMutability": "nonpayable",
      "type": "function"
    },
    {
      "inputs": [
        {
          "internalType": "address",
          "name": "_id",
          "type": "address"
        },
        {
          "internalType": "string",
          "name": "_description",
          "type": "string"
        },
        {
          "internalType": "string",
          "name": "_result",
          "type": "string"
        }
      ],
      "name": "setResults",
      "outputs": [],
      "stateMutability": "nonpayable",
      "type": "function"
    },
    {
      "inputs": [
        {
          "internalType": "address",
          "name": "_id",
          "type": "address"
        }
      ],
      "name": "getSampleValidation",
      "outputs": [
        {
          "internalType": "bool",
          "name": "",
          "type": "bool"
        },
        {
          "internalType": "address",
          "name": "",
          "type": "address"
        }
      ],
      "stateMutability": "view",
      "type": "function",
      "constant": true
    },
    {
      "inputs": [
        {
          "internalType": "uint256",
          "name": "_tokenId",
          "type": "uint256"
        }
      ],
      "name": "getErrorTokenInfo",
      "outputs": [
        {
          "internalType": "address",
          "name": "",
          "type": "address"
        }
      ],
      "stateMutability": "view",
      "type": "function",
      "constant": true
    },
    {
      "inputs": [],
      "name": "getErrorTokens",
      "outputs": [
        {
          "internalType": "uint256[]",
          "name": "",
          "type": "uint256[]"
        }
      ],
      "stateMutability": "view",
      "type": "function",
      "constant": true
    },
    {
      "inputs": [
        {
          "internalType": "address",
          "name": "_sender",
          "type": "address"
        },
        {
          "internalType": "uint256",
          "name": "_tokenId",
          "type": "uint256"
        }
      ],
      "name": "getControlTokenInfo",
      "outputs": [
        {
          "components": [
            {
              "internalType": "address",
              "name": "controlOwner",
              "type": "address"
            },
            {
              "internalType": "string",
              "name": "description",
              "type": "string"
            },
            {
              "internalType": "bool",
              "name": "is_valid",
              "type": "bool"
            },
            {
              "internalType": "uint256",
              "name": "timestamp",
              "type": "uint256"
            },
            {
              "internalType": "uint256",
              "name": "temperature",
              "type": "uint256"
            },
            {
              "internalType": "uint256",
              "name": "humidity",
              "type": "uint256"
            },
            {
              "internalType": "uint256",
              "name": "brightness",
              "type": "uint256"
            }
          ],
          "internalType": "struct HipraTokenFactory.ControlCheck",
          "name": "",
          "type": "tuple"
        }
      ],
      "stateMutability": "view",
      "type": "function",
      "constant": true
    },
    {
      "inputs": [
        {
          "internalType": "address",
          "name": "_sender",
          "type": "address"
        }
      ],
      "name": "getMyControlTokens",
      "outputs": [
        {
          "internalType": "uint256[]",
          "name": "",
          "type": "uint256[]"
        }
      ],
      "stateMutability": "view",
      "type": "function",
      "constant": true
    },
    {
      "inputs": [
        {
          "internalType": "address",
          "name": "_sender",
          "type": "address"
        },
        {
          "internalType": "uint256",
          "name": "_tokenId",
          "type": "uint256"
        }
      ],
      "name": "getResultTokenInfo",
      "outputs": [
        {
          "components": [
            {
              "internalType": "address",
              "name": "resultOwner",
              "type": "address"
            },
            {
              "internalType": "string",
              "name": "description",
              "type": "string"
            },
            {
              "internalType": "string",
              "name": "result",
              "type": "string"
            },
            {
              "internalType": "uint256",
              "name": "timestamp",
              "type": "uint256"
            }
          ],
          "internalType": "struct HipraTokenFactory.Result",
          "name": "",
          "type": "tuple"
        }
      ],
      "stateMutability": "view",
      "type": "function",
      "constant": true
    },
    {
      "inputs": [
        {
          "internalType": "address",
          "name": "_sender",
          "type": "address"
        }
      ],
      "name": "getMyResultToken",
      "outputs": [
        {
          "internalType": "uint256",
          "name": "",
          "type": "uint256"
        }
      ],
      "stateMutability": "view",
      "type": "function",
      "constant": true
    },
    {
      "inputs": [
        {
          "internalType": "bytes4",
          "name": "interfaceId",
          "type": "bytes4"
        }
      ],
      "name": "supportsInterface",
      "outputs": [
        {
          "internalType": "bool",
          "name": "",
          "type": "bool"
        }
      ],
      "stateMutability": "view",
      "type": "function",
      "constant": true
    }
  ],
  "bytecode": "0x608060405234801561001057600080fd5b50336000806101000a81548173ffffffffffffffffffffffffffffffffffffffff021916908373ffffffffffffffffffffffffffffffffffffffff160217905550600180819055506001600c60003373ffffffffffffffffffffffffffffffffffffffff1673ffffffffffffffffffffffffffffffffffffffff16815260200190815260200160002060006101000a81548160ff0219169083151502179055506001600a60003373ffffffffffffffffffffffffffffffffffffffff1673ffffffffffffffffffffffffffffffffffffffff16815260200190815260200160002060006101000a81548160ff0219169083151502179055506001600b60003373ffffffffffffffffffffffffffffffffffffffff1673ffffffffffffffffffffffffffffffffffffffff16815260200190815260200160002060006101000a81548160ff0219169083151502179055506127d48061016f6000396000f3fe608060405234801561001057600080fd5b50600436106100f55760003560e01c8063a0b62fa211610097578063c42a34bc11610066578063c42a34bc146102a8578063c8d4bd13146102c4578063f5fb09ae146102f5578063f965f57714610311576100f5565b8063a0b62fa2146101fc578063a5adebf51461022c578063a7fc7a071461025c578063ab926f7714610278576100f5565b80631785f53c116100d35780631785f53c1461017857806328bde615146101945780636f3bf86c146101b057806370480275146101e0576100f5565b806301ffc9a7146100fa57806302f48e9b1461012a5780630a7dfe571461015a575b600080fd5b610114600480360381019061010f9190611e89565b61032d565b604051610121919061236d565b60405180910390f35b610144600480360381019061013f9190611e4d565b610387565b6040516101519190612453565b60405180910390f35b6101626105a4565b60405161016f919061234b565b60405180910390f35b610192600480360381019061018d9190611d04565b610652565b005b6101ae60048036038101906101a99190611d04565b610753565b005b6101ca60048036038101906101c59190611e4d565b61085b565b6040516101d79190612431565b60405180910390f35b6101fa60048036038101906101f59190611d04565b610a1f565b005b61021660048036038101906102119190611edb565b610b29565b60405161022391906122e4565b60405180910390f35b61024660048036038101906102419190611d04565b610c47565b6040516102539190612475565b60405180910390f35b61027660048036038101906102719190611d04565b610c90565b005b610292600480360381019061028d9190611d04565b610d98565b60405161029f919061234b565b60405180910390f35b6102c260048036038101906102bd9190611d2d565b610e2f565b005b6102de60048036038101906102d99190611d04565b61123c565b6040516102ec929190612388565b60405180910390f35b61030f600480360381019061030a9190611dce565b61134b565b005b61032b60048036038101906103269190611d04565b6115cc565b005b6000807bffffffffffffffffffffffffffffffffffffffffffffffffffffffff1916827bffffffffffffffffffffffffffffffffffffffffffffffffffffffff19161480610380575061037f826116a5565b5b9050919050565b61038f611afd565b8273ffffffffffffffffffffffffffffffffffffffff166002600084815260200190815260200160002060009054906101000a900473ffffffffffffffffffffffffffffffffffffffff1673ffffffffffffffffffffffffffffffffffffffff16146103fa57600080fd5b600460008381526020019081526020016000206040518060800160405290816000820160009054906101000a900473ffffffffffffffffffffffffffffffffffffffff1673ffffffffffffffffffffffffffffffffffffffff1673ffffffffffffffffffffffffffffffffffffffff16815260200160018201805461047e90612629565b80601f01602080910402602001604051908101604052809291908181526020018280546104aa90612629565b80156104f75780601f106104cc576101008083540402835291602001916104f7565b820191906000526020600020905b8154815290600101906020018083116104da57829003601f168201915b5050505050815260200160028201805461051090612629565b80601f016020809104026020016040519081016040528092919081815260200182805461053c90612629565b80156105895780601f1061055e57610100808354040283529160200191610589565b820191906000526020600020905b81548152906001019060200180831161056c57829003601f168201915b50505050508152602001600382015481525050905092915050565b6060600c60003373ffffffffffffffffffffffffffffffffffffffff1673ffffffffffffffffffffffffffffffffffffffff16815260200190815260200160002060009054906101000a900460ff166105fc57600080fd5b600d80548060200260200160405190810160405280929190818152602001828054801561064857602002820191906000526020600020905b815481526020019060010190808311610634575b5050505050905090565b3373ffffffffffffffffffffffffffffffffffffffff1660008054906101000a900473ffffffffffffffffffffffffffffffffffffffff1673ffffffffffffffffffffffffffffffffffffffff16146106aa57600080fd5b600c60008273ffffffffffffffffffffffffffffffffffffffff1673ffffffffffffffffffffffffffffffffffffffff16815260200190815260200160002060009054906101000a900460ff161561070157600080fd5b600c60008273ffffffffffffffffffffffffffffffffffffffff1673ffffffffffffffffffffffffffffffffffffffff16815260200190815260200160002060006101000a81549060ff021916905550565b600c60003373ffffffffffffffffffffffffffffffffffffffff1673ffffffffffffffffffffffffffffffffffffffff16815260200190815260200160002060009054906101000a900460ff166107a957600080fd5b600b60008273ffffffffffffffffffffffffffffffffffffffff1673ffffffffffffffffffffffffffffffffffffffff16815260200190815260200160002060009054906101000a900460ff161561080057600080fd5b6001600b60008373ffffffffffffffffffffffffffffffffffffffff1673ffffffffffffffffffffffffffffffffffffffff16815260200190815260200160002060006101000a81548160ff02191690831515021790555050565b610863611b3b565b8273ffffffffffffffffffffffffffffffffffffffff166002600084815260200190815260200160002060009054906101000a900473ffffffffffffffffffffffffffffffffffffffff1673ffffffffffffffffffffffffffffffffffffffff16146108ce57600080fd5b600360008381526020019081526020016000206040518060e00160405290816000820160009054906101000a900473ffffffffffffffffffffffffffffffffffffffff1673ffffffffffffffffffffffffffffffffffffffff1673ffffffffffffffffffffffffffffffffffffffff16815260200160018201805461095290612629565b80601f016020809104026020016040519081016040528092919081815260200182805461097e90612629565b80156109cb5780601f106109a0576101008083540402835291602001916109cb565b820191906000526020600020905b8154815290600101906020018083116109ae57829003601f168201915b505050505081526020016002820160009054906101000a900460ff16151515158152602001600382015481526020016004820154815260200160058201548152602001600682015481525050905092915050565b3373ffffffffffffffffffffffffffffffffffffffff1660008054906101000a900473ffffffffffffffffffffffffffffffffffffffff1673ffffffffffffffffffffffffffffffffffffffff1614610a7757600080fd5b600c60008273ffffffffffffffffffffffffffffffffffffffff1673ffffffffffffffffffffffffffffffffffffffff16815260200190815260200160002060009054906101000a900460ff1615610ace57600080fd5b6001600c60008373ffffffffffffffffffffffffffffffffffffffff1673ffffffffffffffffffffffffffffffffffffffff16815260200190815260200160002060006101000a81548160ff02191690831515021790555050565b6000600c60003373ffffffffffffffffffffffffffffffffffffffff1673ffffffffffffffffffffffffffffffffffffffff16815260200190815260200160002060009054906101000a900460ff16610b8157600080fd5b60008054906101000a900473ffffffffffffffffffffffffffffffffffffffff1673ffffffffffffffffffffffffffffffffffffffff166002600084815260200190815260200160002060009054906101000a900473ffffffffffffffffffffffffffffffffffffffff1673ffffffffffffffffffffffffffffffffffffffff1614610c0c57600080fd5b6005600083815260200190815260200160002060009054906101000a900473ffffffffffffffffffffffffffffffffffffffff169050919050565b6000600860008373ffffffffffffffffffffffffffffffffffffffff1673ffffffffffffffffffffffffffffffffffffffff168152602001908152602001600020549050919050565b600c60003373ffffffffffffffffffffffffffffffffffffffff1673ffffffffffffffffffffffffffffffffffffffff16815260200190815260200160002060009054906101000a900460ff16610ce657600080fd5b600a60008273ffffffffffffffffffffffffffffffffffffffff1673ffffffffffffffffffffffffffffffffffffffff16815260200190815260200160002060009054906101000a900460ff1615610d3d57600080fd5b6001600a60008373ffffffffffffffffffffffffffffffffffffffff1673ffffffffffffffffffffffffffffffffffffffff16815260200190815260200160002060006101000a81548160ff02191690831515021790555050565b6060600760008373ffffffffffffffffffffffffffffffffffffffff1673ffffffffffffffffffffffffffffffffffffffff168152602001908152602001600020805480602002602001604051908101604052809291908181526020018280548015610e2357602002820191906000526020600020905b815481526020019060010190808311610e0f575b50505050509050919050565b600a60003373ffffffffffffffffffffffffffffffffffffffff1673ffffffffffffffffffffffffffffffffffffffff16815260200190815260200160002060009054906101000a900460ff16610e8557600080fd5b600960008773ffffffffffffffffffffffffffffffffffffffff1673ffffffffffffffffffffffffffffffffffffffff16815260200190815260200160002060009054906101000a900460ff16610edb57600080fd5b610ee3611b3b565b33816000019073ffffffffffffffffffffffffffffffffffffffff16908173ffffffffffffffffffffffffffffffffffffffff1681525050848160200181905250428160600181815250508581604001901515908115158152505083816080018181525050828160a0018181525050818160c00181815250506000600660008973ffffffffffffffffffffffffffffffffffffffff1673ffffffffffffffffffffffffffffffffffffffff16815260200190815260200160002060009054906101000a900473ffffffffffffffffffffffffffffffffffffffff1690508160036000600154815260200190815260200160002060008201518160000160006101000a81548173ffffffffffffffffffffffffffffffffffffffff021916908373ffffffffffffffffffffffffffffffffffffffff1602179055506020820151816001019080519060200190611039929190611b90565b5060408201518160020160006101000a81548160ff021916908315150217905550606082015181600301556080820151816004015560a0820151816005015560c082015181600601559050506110918160015461170f565b600760008273ffffffffffffffffffffffffffffffffffffffff1673ffffffffffffffffffffffffffffffffffffffff16815260200190815260200160002060015490806001815401808255809150506001900390600052602060002001600090919091909150556001600081548092919061110c9061265b565b919050555086611232576000600960008a73ffffffffffffffffffffffffffffffffffffffff1673ffffffffffffffffffffffffffffffffffffffff16815260200190815260200160002060006101000a81548160ff0219169083151502179055508760056000600154815260200190815260200160002060006101000a81548173ffffffffffffffffffffffffffffffffffffffff021916908373ffffffffffffffffffffffffffffffffffffffff1602179055506111ee60008054906101000a900473ffffffffffffffffffffffffffffffffffffffff1660015461170f565b600d60015490806001815401808255809150506001900390600052602060002001600090919091909150556001600081548092919061122c9061265b565b91905055505b5050505050505050565b600080600c60003373ffffffffffffffffffffffffffffffffffffffff1673ffffffffffffffffffffffffffffffffffffffff16815260200190815260200160002060009054906101000a900460ff1661129557600080fd5b600960008473ffffffffffffffffffffffffffffffffffffffff1673ffffffffffffffffffffffffffffffffffffffff16815260200190815260200160002060009054906101000a900460ff16600660008573ffffffffffffffffffffffffffffffffffffffff1673ffffffffffffffffffffffffffffffffffffffff16815260200190815260200160002060009054906101000a900473ffffffffffffffffffffffffffffffffffffffff1691509150915091565b600b60003373ffffffffffffffffffffffffffffffffffffffff1673ffffffffffffffffffffffffffffffffffffffff16815260200190815260200160002060009054906101000a900460ff166113a157600080fd5b600960008473ffffffffffffffffffffffffffffffffffffffff1673ffffffffffffffffffffffffffffffffffffffff16815260200190815260200160002060009054906101000a900460ff166113f757600080fd5b6113ff611afd565b33816000019073ffffffffffffffffffffffffffffffffffffffff16908173ffffffffffffffffffffffffffffffffffffffff1681525050828160200181905250818160400181905250428160600181815250506000600660008673ffffffffffffffffffffffffffffffffffffffff1673ffffffffffffffffffffffffffffffffffffffff16815260200190815260200160002060009054906101000a900473ffffffffffffffffffffffffffffffffffffffff1690508160046000600154815260200190815260200160002060008201518160000160006101000a81548173ffffffffffffffffffffffffffffffffffffffff021916908373ffffffffffffffffffffffffffffffffffffffff1602179055506020820151816001019080519060200190611530929190611b90565b50604082015181600201908051906020019061154d929190611b90565b50606082015181600301559050506115678160015461170f565b600154600860008373ffffffffffffffffffffffffffffffffffffffff1673ffffffffffffffffffffffffffffffffffffffff16815260200190815260200160002081905550600160008154809291906115c09061265b565b91905055505050505050565b33600660008373ffffffffffffffffffffffffffffffffffffffff1673ffffffffffffffffffffffffffffffffffffffff16815260200190815260200160002060006101000a81548173ffffffffffffffffffffffffffffffffffffffff021916908373ffffffffffffffffffffffffffffffffffffffff1602179055506001600960008373ffffffffffffffffffffffffffffffffffffffff1673ffffffffffffffffffffffffffffffffffffffff16815260200190815260200160002060006101000a81548160ff02191690831515021790555050565b60007f01ffc9a7000000000000000000000000000000000000000000000000000000007bffffffffffffffffffffffffffffffffffffffffffffffffffffffff1916827bffffffffffffffffffffffffffffffffffffffffffffffffffffffff1916149050919050565b61172982826040518060200160405280600081525061172d565b5050565b6117378383611788565b61174460008484846118ff565b611783576040517f08c379a000000000000000000000000000000000000000000000000000000000815260040161177a90612411565b60405180910390fd5b505050565b600073ffffffffffffffffffffffffffffffffffffffff168273ffffffffffffffffffffffffffffffffffffffff1614156117f8576040517f08c379a00000000000000000000000000000000000000000000000000000000081526004016117ef906123d1565b60405180910390fd5b61180181611a79565b15611841576040517f08c379a0000000000000000000000000000000000000000000000000000000008152600401611838906123f1565b60405180910390fd5b61184d60008383611ae5565b816002600083815260200190815260200160002060006101000a81548173ffffffffffffffffffffffffffffffffffffffff021916908373ffffffffffffffffffffffffffffffffffffffff160217905550808273ffffffffffffffffffffffffffffffffffffffff16600073ffffffffffffffffffffffffffffffffffffffff167fddf252ad1be2c89b69c2b068fc378daa952ba7f163c4a11628f55a4df523b3ef60405160405180910390a45050565b600061190a84611aea565b15611a6c578373ffffffffffffffffffffffffffffffffffffffff16639642d02d338786866040518563ffffffff1660e01b815260040161194e94939291906122ff565b602060405180830381600087803b15801561196857600080fd5b505af192505050801561199957506040513d601f19601f820116820180604052508101906119969190611eb2565b60015b611a1c573d80600081146119c9576040519150601f19603f3d011682016040523d82523d6000602084013e6119ce565b606091505b50600081511415611a14576040517f08c379a0000000000000000000000000000000000000000000000000000000008152600401611a0b906123b1565b60405180910390fd5b805181602001fd5b639642d02d60e01b7bffffffffffffffffffffffffffffffffffffffffffffffffffffffff1916817bffffffffffffffffffffffffffffffffffffffffffffffffffffffff191614915050611a71565b600190505b949350505050565b60008073ffffffffffffffffffffffffffffffffffffffff166002600084815260200190815260200160002060009054906101000a900473ffffffffffffffffffffffffffffffffffffffff1673ffffffffffffffffffffffffffffffffffffffff1614159050919050565b505050565b600080823b905060008111915050919050565b6040518060800160405280600073ffffffffffffffffffffffffffffffffffffffff1681526020016060815260200160608152602001600081525090565b6040518060e00160405280600073ffffffffffffffffffffffffffffffffffffffff16815260200160608152602001600015158152602001600081526020016000815260200160008152602001600081525090565b828054611b9c90612629565b90600052602060002090601f016020900481019282611bbe5760008555611c05565b82601f10611bd757805160ff1916838001178555611c05565b82800160010185558215611c05579182015b82811115611c04578251825591602001919060010190611be9565b5b509050611c129190611c16565b5090565b5b80821115611c2f576000816000905550600101611c17565b5090565b6000611c46611c41846124c1565b612490565b905082815260208101848484011115611c5e57600080fd5b611c698482856125e7565b509392505050565b600081359050611c8081612742565b92915050565b600081359050611c9581612759565b92915050565b600081359050611caa81612770565b92915050565b600081519050611cbf81612770565b92915050565b600082601f830112611cd657600080fd5b8135611ce6848260208601611c33565b91505092915050565b600081359050611cfe81612787565b92915050565b600060208284031215611d1657600080fd5b6000611d2484828501611c71565b91505092915050565b60008060008060008060c08789031215611d4657600080fd5b6000611d5489828a01611c71565b9650506020611d6589828a01611c86565b955050604087013567ffffffffffffffff811115611d8257600080fd5b611d8e89828a01611cc5565b9450506060611d9f89828a01611cef565b9350506080611db089828a01611cef565b92505060a0611dc189828a01611cef565b9150509295509295509295565b600080600060608486031215611de357600080fd5b6000611df186828701611c71565b935050602084013567ffffffffffffffff811115611e0e57600080fd5b611e1a86828701611cc5565b925050604084013567ffffffffffffffff811115611e3757600080fd5b611e4386828701611cc5565b9150509250925092565b60008060408385031215611e6057600080fd5b6000611e6e85828601611c71565b9250506020611e7f85828601611cef565b9150509250929050565b600060208284031215611e9b57600080fd5b6000611ea984828501611c9b565b91505092915050565b600060208284031215611ec457600080fd5b6000611ed284828501611cb0565b91505092915050565b600060208284031215611eed57600080fd5b6000611efb84828501611cef565b91505092915050565b6000611f1083836122c6565b60208301905092915050565b611f2581612573565b82525050565b611f3481612573565b82525050565b6000611f4582612501565b611f4f818561252f565b9350611f5a836124f1565b8060005b83811015611f8b578151611f728882611f04565b9750611f7d83612522565b925050600181019050611f5e565b5085935050505092915050565b611fa181612585565b82525050565b611fb081612585565b82525050565b6000611fc18261250c565b611fcb8185612540565b9350611fdb8185602086016125f6565b611fe481612731565b840191505092915050565b6000611ffa82612517565b6120048185612551565b93506120148185602086016125f6565b61201d81612731565b840191505092915050565b6000612035603283612562565b91507f4552433732313a207472616e7366657220746f206e6f6e20455243373231526560008301527f63656976657220696d706c656d656e74657200000000000000000000000000006020830152604082019050919050565b600061209b602583612562565b91507f455243373231204552524f523a206d696e7420746f20746865207a65726f206160008301527f64726573730000000000000000000000000000000000000000000000000000006020830152604082019050919050565b6000612101602283612562565b91507f455243373231204552524f523a20746f6b656e20616c7265616479206d696e7460008301527f65640000000000000000000000000000000000000000000000000000000000006020830152604082019050919050565b6000612167603883612562565b91507f455243373231204552524f523a207472616e7366657220746f206e6f6e20455260008301527f43373231526563656976657220696d706c656d656e74657200000000000000006020830152604082019050919050565b600060e0830160008301516121d86000860182611f1c565b50602083015184820360208601526121f08282611fef565b91505060408301516122056040860182611f98565b50606083015161221860608601826122c6565b50608083015161222b60808601826122c6565b5060a083015161223e60a08601826122c6565b5060c083015161225160c08601826122c6565b508091505092915050565b60006080830160008301516122746000860182611f1c565b506020830151848203602086015261228c8282611fef565b915050604083015184820360408601526122a68282611fef565b91505060608301516122bb60608601826122c6565b508091505092915050565b6122cf816125dd565b82525050565b6122de816125dd565b82525050565b60006020820190506122f96000830184611f2b565b92915050565b60006080820190506123146000830187611f2b565b6123216020830186611f2b565b61232e60408301856122d5565b81810360608301526123408184611fb6565b905095945050505050565b600060208201905081810360008301526123658184611f3a565b905092915050565b60006020820190506123826000830184611fa7565b92915050565b600060408201905061239d6000830185611fa7565b6123aa6020830184611f2b565b9392505050565b600060208201905081810360008301526123ca81612028565b9050919050565b600060208201905081810360008301526123ea8161208e565b9050919050565b6000602082019050818103600083015261240a816120f4565b9050919050565b6000602082019050818103600083015261242a8161215a565b9050919050565b6000602082019050818103600083015261244b81846121c0565b905092915050565b6000602082019050818103600083015261246d818461225c565b905092915050565b600060208201905061248a60008301846122d5565b92915050565b6000604051905081810181811067ffffffffffffffff821117156124b7576124b6612702565b5b8060405250919050565b600067ffffffffffffffff8211156124dc576124db612702565b5b601f19601f8301169050602081019050919050565b6000819050602082019050919050565b600081519050919050565b600081519050919050565b600081519050919050565b6000602082019050919050565b600082825260208201905092915050565b600082825260208201905092915050565b600082825260208201905092915050565b600082825260208201905092915050565b600061257e826125bd565b9050919050565b60008115159050919050565b60007fffffffff0000000000000000000000000000000000000000000000000000000082169050919050565b600073ffffffffffffffffffffffffffffffffffffffff82169050919050565b6000819050919050565b82818337600083830152505050565b60005b838110156126145780820151818401526020810190506125f9565b83811115612623576000848401525b50505050565b6000600282049050600182168061264157607f821691505b60208210811415612655576126546126d3565b5b50919050565b6000612666826125dd565b91507fffffffffffffffffffffffffffffffffffffffffffffffffffffffffffffffff821415612699576126986126a4565b5b600182019050919050565b7f4e487b7100000000000000000000000000000000000000000000000000000000600052601160045260246000fd5b7f4e487b7100000000000000000000000000000000000000000000000000000000600052602260045260246000fd5b7f4e487b7100000000000000000000000000000000000000000000000000000000600052604160045260246000fd5b6000601f19601f8301169050919050565b61274b81612573565b811461275657600080fd5b50565b61276281612585565b811461276d57600080fd5b50565b61277981612591565b811461278457600080fd5b50565b612790816125dd565b811461279b57600080fd5b5056fea264697066735822122017b725dc99fc20a8a40be76ae9030efe3453e53f042cc5db1eb95a3e025a1b2c64736f6c63430008000033",
  "immutableReferences": {},
  "source": "// SPDX-License-Identifier: MIT\npragma solidity ^0.8.0;\npragma experimental ABIEncoderV2;\n\nimport \"./ERC165.sol\";\nimport \"./IERC721.sol\";\nimport \"./IERC721Receiver.sol\";\n\ncontract HipraTokenFactory is ERC165, IERC721 {\n\n    address Owner;\n\n    uint256 tokenCounter;\n\n    struct ControlCheck{\n        address controlOwner;\n        string description;\n        bool is_valid;\n        uint256 timestamp;\n        uint256 temperature;\n        uint256 humidity;\n        uint256 brightness;\n    }\n\n    struct Result{\n        address resultOwner;\n        string description;\n        string result;\n        uint256 timestamp;\n    }\n\n    mapping(uint256 => address) private _owners; //Find the owner of the token by tokenId\n    mapping(uint256 => ControlCheck) private _tokenControlData; //Find the token Control data by tokenId\n    mapping(uint256 => Result) private _tokenResultData; //Find the token Result data by tokenId\n    mapping(uint256 => address) private _tokenErrorData; //Find the Sample address of the token by tokenId \n    mapping(address => address) private _samplePatient; //Find the patient address of the sample\n    mapping(address => uint256[]) private _patientControlTokens; //Find the list of the control tokens by patient address\n    mapping(address => uint256) private _patientResultToken; //Find the result token by patient address\n    mapping(address => bool) private _sampleIsValid; //true => the sample is valid, false => the sample is not valid\n\n    mapping (address => bool) private controllers; //List of the controlers by address\n    mapping (address => bool) private researchers; //List of the researchers by address\n    mapping (address => bool) private admins; //List of the admins by address\n\n    uint256[] _sampleErrorTokens; //List of the error tokens\n\n    constructor(){\n        Owner = msg.sender;\n        tokenCounter = 1;\n        admins[msg.sender] = true;\n        controllers[msg.sender] = true;\n        researchers[msg.sender] = true;\n    }\n\n    modifier onlyOwner(){ //Only the Owner can access\n        require(Owner ==msg.sender);\n        _;\n    }\n\n    function addAdmin(address _address) public onlyOwner { //Set admin permissions\n        require(!admins[_address]);\n        admins[_address] = true;\n    }\n\n    function removeAdmin(address _address) public onlyOwner { //Set admin permissions\n        require(!admins[_address]);\n        delete admins[_address];\n    }\n\n    //Only the admins can access\n    modifier onlyAdmin(){\n        require(admins[msg.sender]);\n        _;\n    }\n\n    //Set controllers permissions\n    function addController(address _address) public onlyAdmin {\n        require(!controllers[_address]);\n        controllers[_address] = true;\n    }\n\n    //only the controllers can access\n    modifier onlyController() {\n        require(controllers[msg.sender]);\n        _;\n    }\n\n    //Set researcher permissions\n    function addResearcher(address _address) public onlyAdmin {\n        require(!researchers[_address]);\n        researchers[_address] = true;\n    }\n\n    //Only the researchers can access\n    modifier onlyResearcher() {\n        require(researchers[msg.sender]);\n        _;\n    }\n\n    //Link the sample with the patient\n    function setSample(address _id) public {\n        _samplePatient[_id] = msg.sender;\n        _sampleIsValid[_id] = true;\n    }\n\n    //Controller create a token and send to the sample owner\n    function setControlCheck(address _id, bool _is_valid, string memory _description, uint256 _temperature, uint256 _humidity, uint256 _brightness) public onlyController {\n        require(_sampleIsValid[_id]);\n        ControlCheck memory c;\n\n        c.controlOwner = msg.sender;\n        c.description = _description;\n        c.timestamp = block.timestamp;\n        c.is_valid = _is_valid;\n        c.temperature = _temperature;\n        c.humidity = _humidity;\n        c.brightness = _brightness;\n        address patient = _samplePatient[_id];\n\n        _tokenControlData[tokenCounter] = c;\n        _safeMint(patient, tokenCounter);\n        _patientControlTokens[patient].push(tokenCounter);\n\n        tokenCounter++;\n\n        if(!_is_valid){\n            _sampleIsValid[_id] = false;\n            _tokenErrorData[tokenCounter] = _id;\n            _safeMint(Owner, tokenCounter);\n            _sampleErrorTokens.push(tokenCounter);\n\n            tokenCounter++;\n        }\n    }\n\n    //Researcher create a token and send to the sample owner\n    function setResults(address _id, string memory _description, string memory _result) public onlyResearcher {\n        require(_sampleIsValid[_id]);\n        Result memory r;\n\n        r.resultOwner = msg.sender;\n        r.description = _description;\n        r.result = _result;\n        r.timestamp = block.timestamp;\n        address patient = _samplePatient[_id];\n\n        _tokenResultData[tokenCounter] = r;\n        _safeMint(patient, tokenCounter);\n        _patientResultToken[patient] = tokenCounter;\n\n        tokenCounter++;\n    }\n\n    //The admins know if the sample is valid and the address of the patient\n    function getSampleValidation(address _id) public view onlyAdmin returns(bool, address){\n        return (_sampleIsValid[_id], _samplePatient[_id]);\n    }\n\n    //Get the sample address of the token\n    function getErrorTokenInfo(uint256 _tokenId) public view onlyAdmin returns(address){\n        require(_owners[_tokenId] == Owner);\n        return _tokenErrorData[_tokenId];\n    }\n\n    //Get the list of error tokens\n    function getErrorTokens() public view onlyAdmin returns(uint256[] memory){\n        return _sampleErrorTokens;\n    }\n\n    //Get the control info by tokenId\n    //Sender could be avoided with msg.sender. However it is added because of javascript call()\n    function getControlTokenInfo(address _sender, uint256 _tokenId) public view returns(ControlCheck memory){\n        require(_owners[_tokenId] ==  _sender);\n        return _tokenControlData[_tokenId];\n    }\n\n    //Get the list of control tokens\n    //Sender could be avoided with msg.sender. However it is added because of javascript call()\n    function getMyControlTokens(address _sender) public view returns(uint256[] memory){\n        return _patientControlTokens[_sender];\n    }\n\n    //Get the result info by tokenid\n    //Sender could be avoided with msg.sender. However it is added because of javascript call()\n    function getResultTokenInfo(address _sender, uint256 _tokenId) public view returns(Result memory){\n        require(_owners[_tokenId] == _sender);\n        return _tokenResultData[_tokenId];\n    }\n\n    //Get the result token\n    function getMyResultToken(address _sender) public view returns(uint256){\n        return _patientResultToken[_sender];\n    }\n\n    function supportsInterface(bytes4 interfaceId) public view virtual override(ERC165, IERC165) returns (bool) {\n        return interfaceId == type(IERC721).interfaceId || super.supportsInterface(interfaceId);\n    }\n\n    function _safeMint(address to, uint256 tokenId) private {\n        _safeMint(to, tokenId, \"\");\n    }\n\n    function _safeMint(address to, uint256 tokenId, bytes memory _data) private {\n        _mint(to, tokenId);\n        require(_checkOnERC721Received(address(0), to, tokenId, _data), \"ERC721 ERROR: transfer to non ERC721Receiver implementer\");\n    }\n\n    function _mint(address to, uint256 tokenId) internal virtual {\n        require(to != address(0), \"ERC721 ERROR: mint to the zero adress\");\n        require(!_exists(tokenId), \"ERC721 ERROR: token already minted\");\n\n        _beforeTokenTransfer(address(0), to, tokenId);\n\n        _owners[tokenId] = to;\n\n        emit Transfer(address(0), to, tokenId);\n    }\n\n\n    function isContract(address _addr) private view returns (bool){\n        uint256 size;\n        assembly {\n            size := extcodesize(_addr)\n        }\n        return (size > 0);\n    }\n\n    function _exists(uint256 tokenId) internal view virtual returns (bool){\n        return _owners[tokenId] != address(0);\n    }\n\n    function _beforeTokenTransfer(address from, address to, uint256 tokenId) internal virtual{\n\n    }\n    \n    function _checkOnERC721Received(address from, address to, uint256 tokenId, bytes memory _data) private returns (bool){\n        if(isContract(to)){\n            try IERC721Receiver(to).onERC721Receiver(msg.sender, from, tokenId, _data) returns (bytes4 retval) {\n                return retval == IERC721Receiver(to).onERC721Receiver.selector;\n            }  catch (bytes memory reason) {\n                if (reason.length == 0){\n                    revert(\"ERC721: transfer to non ERC721Receiver implementer\");\n                } else {\n                    assembly {\n                        revert(add(32, reason), mload(reason))\n                    }\n                }\n            }\n        }\n        return true;\n    }\n}",
  "sourcePath": "/Users/joangomezalvarez/Desktop/Joan/whatelse/repository/own/hipra-token-dapp/src/contracts/HipraTokenFactory.sol",
  "compiler": {
    "name": "solc",
    "version": "0.8.0+commit.c7dfd78e.Emscripten.clang"
  },
  "schemaVersion": "3.3.4",
  "updatedAt": "2021-05-11T18:15:52.510Z",
  "networkType": "ethereum",
  "devdoc": {
    "kind": "dev",
    "methods": {},
    "version": 1
  },
  "userdoc": {
    "kind": "user",
    "methods": {},
    "version": 1
  }
}